{
  "contractName": "HashinkDrop",
  "abi": [
    {
      "inputs": [],
      "stateMutability": "nonpayable",
      "type": "constructor"
    },
    {
      "anonymous": false,
      "inputs": [
        {
          "indexed": false,
          "internalType": "address",
          "name": "owner",
          "type": "address"
        },
        {
          "indexed": false,
          "internalType": "uint256",
          "name": "price",
          "type": "uint256"
        },
        {
          "indexed": false,
          "internalType": "uint256",
          "name": "total_amount_aviable",
          "type": "uint256"
        }
      ],
      "name": "DropCreated",
      "type": "event"
    },
    {
      "inputs": [
        {
          "internalType": "bytes32",
          "name": "",
          "type": "bytes32"
        }
      ],
      "name": "dropmeta",
      "outputs": [
        {
          "internalType": "uint256",
          "name": "price",
          "type": "uint256"
        },
        {
          "internalType": "uint256",
          "name": "total_amount_aviable",
          "type": "uint256"
        },
        {
          "internalType": "uint256",
          "name": "total_amount_minted",
          "type": "uint256"
        },
        {
          "internalType": "bool",
          "name": "active",
          "type": "bool"
        },
        {
          "internalType": "address payable",
          "name": "owner",
          "type": "address"
        },
        {
          "internalType": "address",
          "name": "nft_address",
          "type": "address"
        }
      ],
      "stateMutability": "view",
      "type": "function",
      "constant": true
    },
    {
      "inputs": [
        {
          "internalType": "bytes32",
          "name": "_id",
          "type": "bytes32"
        }
      ],
      "name": "start_drop",
      "outputs": [],
      "stateMutability": "nonpayable",
      "type": "function"
    },
    {
      "inputs": [
        {
          "internalType": "bytes32",
          "name": "_id",
          "type": "bytes32"
        }
      ],
      "name": "stop_drop",
      "outputs": [],
      "stateMutability": "nonpayable",
      "type": "function"
    },
    {
      "inputs": [
        {
          "internalType": "uint256",
          "name": "_amount",
          "type": "uint256"
        },
        {
          "internalType": "uint256",
          "name": "_price",
          "type": "uint256"
        },
        {
          "internalType": "address",
          "name": "_nft_address",
          "type": "address"
        },
        {
          "internalType": "address payable",
          "name": "_owner",
          "type": "address"
        }
      ],
      "name": "create_drop",
      "outputs": [
        {
          "internalType": "bytes32",
          "name": "",
          "type": "bytes32"
        }
      ],
      "stateMutability": "payable",
      "type": "function",
      "payable": true
    },
    {
      "inputs": [
        {
          "internalType": "bytes32",
          "name": "_id",
          "type": "bytes32"
        },
        {
          "internalType": "uint256",
          "name": "_tokenID",
          "type": "uint256"
        }
      ],
      "name": "purchase_nft",
      "outputs": [
        {
          "internalType": "bool",
          "name": "",
          "type": "bool"
        }
      ],
      "stateMutability": "payable",
      "type": "function",
      "payable": true
    }
  ],
  "bytecode": "0x608060405234801561001057600080fd5b50336000806101000a81548173ffffffffffffffffffffffffffffffffffffffff021916908373ffffffffffffffffffffffffffffffffffffffff160217905550610ee6806100606000396000f3fe608060405260043610610067576000357c01000000000000000000000000000000000000000000000000000000009004806316ce57851461006c57806330af2d801461009c57806343b691b3146100c5578063932436b2146100f5578063e2ca784814610137575b600080fd5b610086600480360381019061008191906109ab565b610160565b6040516100939190610c28565b60405180910390f35b3480156100a857600080fd5b506100c360048036038101906100be9190610946565b6102e0565b005b6100df60048036038101906100da919061096f565b6103b5565b6040516100ec9190610c0d565b60405180910390f35b34801561010157600080fd5b5061011c60048036038101906101179190610946565b6106cc565b60405161012e96959493929190610cc3565b60405180910390f35b34801561014357600080fd5b5061015e60048036038101906101599190610946565b610755565b005b60008061016d838561082b565b9050846001600083815260200190815260200160002060000181905550856001600083815260200190815260200160002060010181905550836001600083815260200190815260200160002060040160006101000a81548173ffffffffffffffffffffffffffffffffffffffff021916908373ffffffffffffffffffffffffffffffffffffffff16021790555060006001600083815260200190815260200160002060020181905550600180600083815260200190815260200160002060030160006101000a81548160ff021916908315150217905550826001600083815260200190815260200160002060030160016101000a81548173ffffffffffffffffffffffffffffffffffffffff021916908373ffffffffffffffffffffffffffffffffffffffff1602179055507fab85ec425d1483a9cfa1748b5f109258acd8a7f183305dc08213af635f1352908386886040516102cc93929190610b9f565b60405180910390a180915050949350505050565b6001600082815260200190815260200160002060030160019054906101000a900473ffffffffffffffffffffffffffffffffffffffff1673ffffffffffffffffffffffffffffffffffffffff163373ffffffffffffffffffffffffffffffffffffffff1614610384576040517f08c379a000000000000000000000000000000000000000000000000000000000815260040161037b90610c83565b60405180910390fd5b600180600083815260200190815260200160002060030160006101000a81548160ff02191690831515021790555050565b60008034116103f9576040517f08c379a00000000000000000000000000000000000000000000000000000000081526004016103f090610c43565b60405180910390fd5b6001600084815260200190815260200160002060000154341015610452576040517f08c379a000000000000000000000000000000000000000000000000000000000815260040161044990610ca3565b60405180910390fd5b600115156001600085815260200190815260200160002060030160009054906101000a900460ff161515146104bc576040517f08c379a00000000000000000000000000000000000000000000000000000000081526004016104b390610c63565b60405180910390fd5b6001600084815260200190815260200160002060040160009054906101000a900473ffffffffffffffffffffffffffffffffffffffff1673ffffffffffffffffffffffffffffffffffffffff166323b872dd6001600086815260200190815260200160002060030160019054906101000a900473ffffffffffffffffffffffffffffffffffffffff1633856040518463ffffffff167c010000000000000000000000000000000000000000000000000000000002815260040161058193929190610b68565b600060405180830381600087803b15801561059b57600080fd5b505af11580156105af573d6000803e3d6000fd5b505050506001600084815260200190815260200160002060030160019054906101000a900473ffffffffffffffffffffffffffffffffffffffff1673ffffffffffffffffffffffffffffffffffffffff166108fc349081150290604051600060405180830381858888f1935050505015801561062f573d6000803e3d6000fd5b50600180600085815260200190815260200160002060020160008282546106569190610d35565b925050819055506001600084815260200190815260200160002060010154600160008581526020019081526020016000206002015411156106c157600015156001600085815260200190815260200160002060030160009054906101000a90505050600090506106c6565b600190505b92915050565b60016020528060005260406000206000915090508060000154908060010154908060020154908060030160009054906101000a900460ff16908060030160019054906101000a900473ffffffffffffffffffffffffffffffffffffffff16908060040160009054906101000a900473ffffffffffffffffffffffffffffffffffffffff16905086565b6001600082815260200190815260200160002060030160019054906101000a900473ffffffffffffffffffffffffffffffffffffffff1673ffffffffffffffffffffffffffffffffffffffff163373ffffffffffffffffffffffffffffffffffffffff16146107f9576040517f08c379a00000000000000000000000000000000000000000000000000000000081526004016107f090610c83565b60405180910390fd5b60006001600083815260200190815260200160002060030160006101000a81548160ff02191690831515021790555050565b600082826108384261086f565b8051906020012060405160200161085193929190610bd6565b60405160208183030381529060405280519060200120905092915050565b6060602067ffffffffffffffff8111156108b2577f4e487b7100000000000000000000000000000000000000000000000000000000600052604160045260246000fd5b6040519080825280601f01601f1916602001820160405280156108e45781602001600182028036833780820191505090505b509050816020820152919050565b60008135905061090181610e54565b92915050565b60008135905061091681610e6b565b92915050565b60008135905061092b81610e82565b92915050565b60008135905061094081610e99565b92915050565b60006020828403121561095857600080fd5b60006109668482850161091c565b91505092915050565b6000806040838503121561098257600080fd5b60006109908582860161091c565b92505060206109a185828601610931565b9150509250929050565b600080600080608085870312156109c157600080fd5b60006109cf87828801610931565b94505060206109e087828801610931565b93505060406109f1878288016108f2565b9250506060610a0287828801610907565b91505092959194509250565b610a1781610def565b82525050565b610a2681610d9d565b82525050565b610a3581610d8b565b82525050565b610a4481610daf565b82525050565b610a5381610dbb565b82525050565b6000610a66600d83610d24565b91507f4e6f2065746865722073656e74000000000000000000000000000000000000006000830152602082019050919050565b6000610aa6601283610d24565b91507f44726f70206973206e6f742061637469766500000000000000000000000000006000830152602082019050919050565b6000610ae6601b83610d24565b91507f43616c6c6572206973206e6f74206f776e6572206f662064726f7000000000006000830152602082019050919050565b6000610b26601583610d24565b91507f4e6f7420656e6f7567682065746865722073656e7400000000000000000000006000830152602082019050919050565b610b6281610de5565b82525050565b6000606082019050610b7d6000830186610a0e565b610b8a6020830185610a2c565b610b976040830184610b59565b949350505050565b6000606082019050610bb46000830186610a0e565b610bc16020830185610b59565b610bce6040830184610b59565b949350505050565b6000606082019050610beb6000830186610a2c565b610bf86020830185610a2c565b610c056040830184610a4a565b949350505050565b6000602082019050610c226000830184610a3b565b92915050565b6000602082019050610c3d6000830184610a4a565b92915050565b60006020820190508181036000830152610c5c81610a59565b9050919050565b60006020820190508181036000830152610c7c81610a99565b9050919050565b60006020820190508181036000830152610c9c81610ad9565b9050919050565b60006020820190508181036000830152610cbc81610b19565b9050919050565b600060c082019050610cd86000830189610b59565b610ce56020830188610b59565b610cf26040830187610b59565b610cff6060830186610a3b565b610d0c6080830185610a1d565b610d1960a0830184610a2c565b979650505050505050565b600082825260208201905092915050565b6000610d4082610de5565b9150610d4b83610de5565b9250827fffffffffffffffffffffffffffffffffffffffffffffffffffffffffffffffff03821115610d8057610d7f610e25565b5b828201905092915050565b6000610d9682610dc5565b9050919050565b6000610da882610dc5565b9050919050565b60008115159050919050565b6000819050919050565b600073ffffffffffffffffffffffffffffffffffffffff82169050919050565b6000819050919050565b6000610dfa82610e01565b9050919050565b6000610e0c82610e13565b9050919050565b6000610e1e82610dc5565b9050919050565b7f4e487b7100000000000000000000000000000000000000000000000000000000600052601160045260246000fd5b610e5d81610d8b565b8114610e6857600080fd5b50565b610e7481610d9d565b8114610e7f57600080fd5b50565b610e8b81610dbb565b8114610e9657600080fd5b50565b610ea281610de5565b8114610ead57600080fd5b5056fea264697066735822122029658948902b5ca39edcebde409fc7b7881fc52dddd89625d8ffc974e84bd43064736f6c63430008000033",
  "immutableReferences": {},
  "source": "// SPDX-License-Identifier: MIT\npragma solidity >=0.4.22 <0.9.0;\n\nimport \"@openzeppelin/contracts/token/ERC721/IERC721.sol\";\nimport \"@openzeppelin/contracts/token/ERC721/ERC721.sol\";\n\ncontract HashinkDrop {\n\n    event DropCreated(\n        address owner,\n        uint256 price,\n        uint256 total_amount_aviable\n    );\n\n    address private owner;\n\n    struct DropMeta {\n        uint256 price;\n        uint256 total_amount_aviable;\n        uint256 total_amount_minted;\n        bool active;\n        address payable owner;\n        address nft_address;\n    }\n\n    mapping (bytes32 => DropMeta) public dropmeta;\n\n    constructor () public {\n        owner = msg.sender;\n    }\n\n    function start_drop(bytes32 _id) public {\n        require(msg.sender == dropmeta[_id].owner, \"Caller is not owner of drop\");\n        dropmeta[_id].active = true;\n    }\n\n    function stop_drop(bytes32 _id) public {\n        require(msg.sender == dropmeta[_id].owner, \"Caller is not owner of drop\");\n        dropmeta[_id].active = false;\n    }\n \n    //Require that the msg.sender is the owner or approved for the contract.\n    //Maybe also check to see if the contract has been granted approval for this contract\n    //to excute the transfer.\n\n    function create_drop(uint256 _amount, uint256 _price, address _nft_address, address payable _owner) public payable returns (bytes32) {\n        bytes32 _id = _createOrderId(_owner, _nft_address);\n\n        dropmeta[_id].price = _price;\n        dropmeta[_id].total_amount_aviable = _amount;\n        dropmeta[_id].nft_address = _nft_address;\n\n        dropmeta[_id].total_amount_minted = 0;\n        dropmeta[_id].active = true;\n        dropmeta[_id].owner = _owner;\n\n        emit DropCreated(_owner, _price, _amount);\n        return (_id);\n    }\n\n    //Add to checks, one to make sure the correct amount has been sent\n    //another that checks to maker sure the contract is approved to make the tansfer.\n    function purchase_nft(bytes32 _id, uint256 _tokenID) public payable returns (bool) {        \n        require(msg.value > 0, \"No ether sent\");\n        require(msg.value >= dropmeta[_id].price, \"Not enough ether sent\");\n        require(dropmeta[_id].active == true, \"Drop is not active\");\n\n        \n        IERC721(dropmeta[_id].nft_address).transferFrom(dropmeta[_id].owner, msg.sender, _tokenID);\n        dropmeta[_id].owner.transfer(msg.value);\n        dropmeta[_id].total_amount_minted += 1;\n\n        if (dropmeta[_id].total_amount_minted > dropmeta[_id].total_amount_aviable) {\n            dropmeta[_id].active == false;\n            return (false);\n        }\n\n        return (true);\n    }\n\n    function _toBytes(uint256 x) internal pure returns (bytes memory b) {\n        b = new bytes(32);\n        assembly { mstore(add(b, 32), x) }\n    }\n\n    function _createOrderId(address _listerPublicKey, address _listerContractPublicKey) internal view returns (bytes32) {\n        return keccak256(abi.encode(_listerPublicKey, _listerContractPublicKey, keccak256(_toBytes(block.timestamp))));\n    }\n\n}",
  "sourcePath": "/Users/klongrich/myfiles/hashink/new_contracts/contracts/HashInkDrop.sol",
  "compiler": {
    "name": "solc",
    "version": "0.8.0+commit.c7dfd78e.Linux.g++"
  },
  "schemaVersion": "3.4.1",
  "updatedAt": "2021-06-10T08:23:31.000Z",
  "networkType": "ethereum",
  "devdoc": {
    "kind": "dev",
    "methods": {},
    "version": 1
  },
  "userdoc": {
    "kind": "user",
    "methods": {},
    "version": 1
  }
}